:020000040800F2
:100000000000022089010008E9010008E901000858
:10001000E9010008E9010008E9010008000000000A
:10002000000000000000000000000000E9010008DE
:10003000E901000800000000E9010008450200088D
:10004000E9010008E9010008E9010008E9010008E8
:10005000E9010008E9010008E9010008E9010008D8
:10006000E9010008E9010008E9010008E9010008C8
:10007000E9010008E9010008E9010008E9010008B8
:10008000E9010008E9010008E9010008E9010008A8
:10009000E9010008E9010008E9010008E901000898
:1000A000E9010008E9010008E9010008E901000888
:1000B000E9010008E9010008E9010008E901000878
:1000C000E9010008E9010008E9010008E901000868
:1000D000E9010008E9010008E9010008E901000858
:1000E000E9010008E9010008E9010008E901000848
:1000F000E9010008E9010008E9010008E901000838
:10010000E9010008E9010008E9010008E901000827
:10011000E9010008E9010008E9010008E901000817
:10012000E9010008E9010008E9010008E901000807
:10013000E9010008E9010008E9010008E9010008F7
:10014000E9010008E9010008E9010008E9010008E7
:10015000E9010008E9010008E9010008E9010008D7
:10016000E9010008E9010008E9010008E9010008C7
:10017000E9010008E9010008E9010008E9010008B7
:08018000E9010008E901000893
:1001880010498D46002100F004B80F4B5B584350CE
:1001980004310E480E4B42189A42FFF4F6AF0D4A4E
:1001A80000F003B8002342F8043B0B4B9A42FFF4DB
:1001B800F9AF0A48016841F47001016000F038F8AD
:1001C800FFF7FEBF000002205402000800000020D4
:1001D80000000020000000200400002088ED00E05E
:1001E80000BF00BF00BFFFF7FBBF000008B50C4B06
:1001F80018680C4B00221A600B4B4FF480111963DE
:100208004FF0FF315A639A631961596199611A6114
:100218005A619A61054B4FF480329A60804708BD55
:100228000400010810E000E00038024000ED00E0A2
:1002380008B5FFF7DBFF002008BD0000024B1A6875
:0C02480001321A60704700BF0000002067
:040000050800018965
:00000001FF
